S00B00006173702E73726563D5
S3150800000008450020D1010008E1060008E1060008BD
S31508000010E1060008E1060008E1060008E106000816
S31508000020E1060008E1060008E10600085B0800088A
S31508000030E1060008E1060008E10600085F07000877
S315080000405F0700085F0700085F0700085F070008EA
S315080000505F0700085F0700085F0700085F070008DA
S315080000605F0700085F0700085F0700085F070008CA
S315080000705F0700085F0700085F0700085F070008BA
S315080000805F0700085F0700085F0700085F070008AA
S315080000905F0700085F0700085F0700085F0700089A
S315080000A05F0700085F0700085F0700085F0700088A
S315080000B05F0700085F0700085F0700085F0700087A
S315080000C05F0700085F0700085F0700085F0700086A
S315080000D05F0700085F0700085F0700085F0700085A
S315080000E05F0700085F0700085F0700085F0700084A
S315080000F05F0700085F0700085F0700085F0700083A
S315080001005F0700085F0700085F0700085F07000829
S315080001105F0700085F0700085F0700085F07000819
S315080001205F0700085F0700085F0700085F07000809
S315080001305F0700085F0700085F0700085F070008F9
S315080001405F0700085F0700085F0700085F070008E9
S315080001505F0700085F0700085F0700085F070008D9
S315080001605F0700085F0700085F0700085F070008C9
S315080001705F0700085F0700085F0700085F070008B9
S315080001805F0700085F0700085F0700085F070008A9
S315080001905F0700085F0700085F0700085F07000899
S315080001A05F0700085F0700085F0700085F07000889
S315080001B05F0700085F0700085F0700085F07000879
S315080001C05F0700085F0700085F07000800000000D7
S315080001D071B64FF0000080F31488BFF36F8F18488C
S315080001E0016881F3088817484FF47001026842EAEB
S315080001F0010202604FF0404013490860134800B1FD
S3150800020080474FF000001249124A914204D2086012
S3150800021001F104019142FAD30F49104A914208D2DA
S315080002200F4B0868186001F1040103F104039142B9
S31508000230F7D30C4800B1804701F08AFAFEE70000C0
S3150800024014B6050888ED00E034EF00E0390500082B
S3150800025058020020A0FD002000C5050858C705085B
S3150800026000000020000000001D4AF8B51368064685
S315080002701C4D0F4643F0006313602B6823F0805330
S315080002802B602B6898000AD5174C01E0013C24D056
S315080002904FF47A7000F048FB2B689A00F6D4134B9B
S315080002A0104D186800F0FE4040EA074040EA861004
S315080002B018602B6843F080532B602B6899000AD48A
S315080002C0094C01E0013C08D04FF47A7000F02CFB91
S315080002D02B689B00F6D50020F8BD6FF03100F8BDFD
S315080002E09038024000380240A18601008838024052
S315080002F070B5864D82B02B6823F480232B602B685B
S3150800030023F480332B602B689A030BD5804C02E0CC
S31508000310013C00F0B8804FF47A7000F005FB2B68BA
S315080003209E03F5D4794D2B6823F480332B602B6814
S3150800033023F480232B602B6843F480332B602B68CF
S315080003409B030BD4724C02E0013C00F09C804FF4F6
S315080003507A7000F0E9FA2B689803F5D56B4D2B688F
S3150800036023F080732B602B689C010BD5694C02E047
S31508000370013C00F088804FF47A7000F0D5FA2B68BB
S315080003809A01F5D4614D644B644A1A602B6843F0B0
S3150800039080732B602B6899010AD45E4C01E0013CFE
S315080003A071D04FF47A7000F0BFFA2B689E01F6D52B
S315080003B05B4B5C491A685C4D42F080521A601B68B8
S315080003C003F080530193019B0B6843F480330B6061
S315080003D02B68DB030AD4554C01E0013C53D04FF49B
S315080003E07A7000F0A1FA2B68D803F6D54D4A4E4D1F
S315080003F0136843F4003313602C6814F400347ED178
S315080004004A4E01E0B4423ED04FF47A70013400F00F
S315080004108BFA2B689903F5D50121C020FFF724FF35
S31508000420434A136803F00F03062B30D8136823F0EA
S315080004300F0343F007031360136803F00F03072B3A
S3150800044000D0FEE73B4D31492A6822F0F0022A60C7
S315080004500A68920155D52A6822F0030242F0020280
S315080004602A602A6802F00C02082A38D0284E4FF46F
S315080004707A70013400F058FA2B6803F00C03082B45
S315080004802DD0B442F3D16FF0310002B070BD294DC2
S315080004901E492A6822F0F0022A600A68930130D5BC
S315080004A02A6802F00C02082A0DD0194E01E0B4425F
S315080004B0E9D04FF47A70013400F036FA2B6803F06D
S315080004C00C03082BF3D11A4A136823F00F0343F0E1
S315080004D007031360136803F00F03072B11D1154A9E
S315080004E00020136823F4E05343F4A0531360136801
S315080004F023F4604343F40043136002B070BD002444
S315080005008AE76FF0040002B070BD00BF00380240F1
S31508000510414B4C00A186010004380240186C402962
S3150800052040380240007000400470004041420F000D
S31508000530003C0240083802403F4B40491A68404890
S3150800054042F00102DFF83CC1F0B500243D4E1A60C6
S315080005500525346083B01A683B4F11403B4ADFF8E3
S3150800056028E1196007601868394920F48020394F56
S31508000570186074601368384823F48033374E136064
S315080005800B6823F001030B60CEF80040C7F800C0E3
S3150800059006600D60136843F480331360BFF34F8F12
S315080005A0BFF36F8F2E4B1C6052F8103C43F4003398
S315080005B042F8103CBFF34F8FBFF36F8F4FF6FF051E
S315080005C051F8882C274B20462A40134341F8883C8B
S315080005D0FFF78EFE08B903B0F0BD234B022601943F
S315080005E01A68224F42F48072214822491A601B6811
S315080005F0214A0193019B3B68204D23F00C03204CB4
S3150800060043F004033B60036843F00C0303600B6884
S3150800061023F002030B60136823F00C0343F0040372
S31508000620136020462E6000F07FF94FF40033204611
S315080006302B6000F079F9F4E700380240FFFFF6FE78
S3150800064004380240083802401030002424ED00E047
S3150800065094ED00E09CED00E0A0ED00E0230002032D
S3150800066050EF00E00003FA0530380240002002404F
S3150800067008200240042002400C20024018200240B4
S3150800068000C2EB0B0000012098ED00E02DE9F04FC9
S31508000690EFF3148010F0040F01D02DED108A01B489
S315080006A0A5480168C1F818D0DFF890E2C1F81CE047
S315080006B0F3E008BC13F0040F01D0BDEC108ABDE8C6
S315080006C0F04F887B10F0040F08D00869004205D067
S315080006D09B490868004201D09A480047704700BF06
S315080006E0EFF31382C2B9EFF31180102814D01EF06D
S315080006F0040F08D0EFF3098323E9014083F309883F
S3150800070001B5184601E001B56846EFF305838E4941
S3150800071051F8232090473DE01EF0040F08D0EFF370
S31508000720098323E9014083F3098801B5184601E0E6
S3150800073001B56846EFF30583834951F823209047AE
S3150800074071B60ABC13F0040F00D105E0EFF3098275
S3150800075002F1080282F3098881F311881847EFF33A
S3150800076011801EF0040F08D0EFF3098323E9014036
S3150800077083F3098801B5184601E001B56846EFF329
S315080007800583714951F82320704951F823E08EF307
S315080007901188904771B60ABC13F0040F00D108E01F
S315080007A06B48026842B9EFF3098202F1080282F344
S315080007B0098881F3118818474FF0000101604FF04E
S315080007C0100181F311884FF00101624801604FF072
S315080007D000016148016061484FF08071EFF30982BA
S315080007E022E90300183A82F309886FF002000047ED
S315080007F0514801685A480268DAB15A480268914273
S3150800080017D0019B13F0100F01D12DED108A08B4F3
S315080008102DE9F00FC1F818D0DFF84CE1C1F81CE05B
S315080008203BE0BDE8F00F08BC13F0100F01D1BDEC9A
S31508000830108A887B10F0040F08D0086930B1404947
S31508000840086818B117EE903A4FF0D4FDEFF3148309
S3150800085023F0040383F3148800DF71B6EFF30980ED
S315080008602030B0E8024080F309884FF0000039498B
S3150800087008604FF0000181F3118870473B48016812
S3150800088081F308884FF0100181F3118861B64FF0A3
S31508000890020080F31488BFF36F8FEFF3148323F0FD
S315080008A0040383F314882F480168234A116019B199
S315080008B0D1F818D0D1F81CF04FF0000080F3148856
S315080008C0BFF36F8F4FF000044FF01005204E214FF5
S315080008D03C6072B684F3118830BF62B685F311881E
S315080008E030680028F5D034604FF0020080F3148891
S315080008F0BFF36F8F4FF001023A6017480460D2E7E2
S315080009004FF0000080F31488BFF36F8F1848004734
S315080009104FF000000F4C206080F31188DFF854E098
S315080009208A685068916808476438002800DC704770
S3150800093009380028FCDC704784FD0020B30600084F
S3150800094088FD0020F503050848B405085CB20508CB
S31508000950F4FC0020D0FC0020CCFC0020F0070008A6
S3150800096078FD0020F0FC00202308000814B60508CE
S31508000970410004085D0A050838B540B20D464EF038
S31508000980F7FE20201C244EF0F3FE45FA04F3043C3F
S3150800099003F00F03092B03F13000C8BF03F137003A
S315080009A04EF0E6FE231DF0D10A20BDE838404EF091
S315080009B0DFBE00BF044A0021044B02F10C001A6096
S315080009C05860D960704700BF68550008DCF20020FF
S315080009D001382DE9F04FDFF840924FEA00188BB046
S315080009E009EB080559F808006B68A9601A6A0090AF
S315080009F0996CD5F80CB0002A00F0DE80002900F0CA
S31508000A00DB80046806464FF0FF302062206820F03D
S31508000A1001002060B06830B97C4F386800F00200E9
S31508000A2040F0010038601F684FF00F0A5E683868AA
S31508000A30DFF8E8E130433860D3F808C0D868DCF856
S31508000A4000703843CCF80000D3F808C01869DCF801
S31508000A5000703843CCF8000017689E6AD86A374099
S31508000A603843106097681E6B586B37403843906060
S31508000A7057689E6BD86B374038435060D7681E6CF2
S31508000A80586C37403843D0601E6D0F68586D374034
S31508000A90384308608F689E6DD86D37403843886044
S31508000AA04F681E6E586E374038434860D7689E6E4A
S31508000AB0D86E37403843D06093F824004FEAD00CFC
S31508000AC000F007000CF1080C800052F82C700AFAA6
S31508000AD000F6019027EA0607187F019EB0400743F3
S31508000AE042F82C7093F84C001F7FC20800F00703E9
S31508000AF008329B0051F822000AFA03FC9F4020EABC
S31508000B000C033B4341F822306368009A23F44053B0
S31508000B106360236803EA0E0E4EF00C032360A36895
S31508000B2023F43063A360394B92681B68D34003F003
S31508000B300303022B58D0032B5AD0012B56D00A2A6E
S31508000B4014BF3A237523E360A246636823F49043EF
S31508000B506360A36823F02A03A360236843F00103B4
S31508000B604AF81C3BE36903F4C003B3F5C00F11D080
S31508000B706FF07E47009E01E0013F3BD04FF47A704C
S31508000B80FFF7D2FEDAF8003003F4C003B3F5C00F5E
S31508000B90F2D1009623680122C84443F48073236087
S31508000BA0A3681343A360236843F020032360C8F8AF
S31508000BB00C20BBF1000F03D028460BB0BDE8F08F20
S31508000BC0009B586852F06CFC0028F5D00226104CA1
S31508000BD04FF4CB720F4B584602A90296049405921D
S31508000BE0069300F059FDE7E71123ACE7EA23AAE7E5
S31508000BF00023A8E72368284623F4D0732360A36854
S31508000C0023F00103A3600BB0BDE8F08F90380240D3
S31508000C10F055000820560008DCF20020F369FFEFC3
S31508000C2038B5C36804461BB10368586852F0D8FB48
S31508000C3023684FF0FF30616800221B681862186845
S31508000C4020F0010018601A605A609A604D69886938
S31508000C502B68184328608869496923EA00030B60F2
S31508000C60E26038BD0138F8B504012C4D2B591A68D5
S31508000C7010689168D369DF0724D5CE0722D502F11B
S31508000C8020074FF0010E13F0020F3E46C2F820E08F
S31508000C9039D0022737605F0722D41F0701D5CE0750
S31508000CA02CD4800605D5990603D52B1998684EF0DD
S31508000CB00DFB2B591B681A68DB69120617D51F0628
S31508000CC016D4F8BD9F0704D5CE0720D45E07E8D40E
S31508000CD0E3E75E07E1D5C907E3D502F120073E46FB
S31508000CE0042232601A07DCD508223260D9E7F8BD3B
S31508000CF02C44A068BDE8F8404EF0B2BA02F12006CE
S31508000D0008223260CDE75E07C7D53E46E8E70227E8
S31508000D1002F1200637605F07E2D4BEE7DCF2002066
S31508000D2003681B681868DA6910F0800004D012F0AE
S31508000D30800001D001209962704700BF03681B68D4
S31508000D4018689968DA6970B4D50718D5CC0716D526
S31508000D50012603F120051E6296072C462DD502258D
S31508000D602560550719D4150701D5CC0720D4810667
S31508000D7001D5960618D44FF0FF3070BC704794071B
S31508000D8004D5CE071DD45507F1D4ECE75407EAD5A8
S31508000D90C907ECD503F120052C4604211607216066
S31508000DA0E5D508212160E2E7586A70BCC0B27047F1
S31508000DB003F1200408212160D9E75407D3D52C462E
S31508000DC0EBE7022503F1200425605507E5D4CAE7B9
S31508000DD0036801291B6807D0022904D11A6842F062
S31508000DE020021A60704770471A6842F080021A603B
S31508000DF0704700BF036801291B6807D0022904D180
S31508000E001A6822F020021A60704770471A6822F0A2
S31508000E1080021A60704700BF01390B4B82B001EBA4
S31508000E20410153F8213003F11C02986213681B062E
S31508000E30FCD540F245130193019B5A1E0192002BE3
S31508000E40FAD102B0704700BF685500080138DFF8CC
S31508000E508CC100225F4900EB4003C0EBC0005CF880
S31508000E6023300CEB00102DE9F04F1D684FF00F0EE4
S31508000E70066A25F00105D0F82480C7681D601A6047
S31508000E805A609A603468C26A48EA040524EA080483
S31508000E90D0F81480356034603E6804698569264355
S31508000EA0C469DFF83CB13E60D8F80060476B35434B
S31508000EB0866BC8F80050D8F800502C43C8F8004094
S31508000EC01568046C05EA0708476D48EA0605C66B07
S31508000ED01560956835402C4394605468466C856C5B
S31508000EE004EA0608C46C066D48EA050590F830A0C1
S31508000EF055604FEADA09D5680AF0070A09F10809C0
S31508000F002C40056E3443C66DD4603C6804EA060876
S31508000F10466E846E48EA05053D60BD6805EA060822
S31508000F20C66E056F48EA0404BC607C6804EA0608D5
S31508000F30466F48EA050590F8288090F858007D60C5
S31508000F404FEA8A05D4680EFA05FA08FA05F5344018
S31508000F5044F00404D46052F8294024EA0A0AC40872
S31508000F6000F007004AEA05050834800042F82950CF
S31508000F7057F824200EFA00FE08FA00F822EA0E00B6
S31508000F8040EA080047F824005A6822F440525A609A
S31508000F901A68114041F00C0119609A6822F430620F
S31508000FA09A60DBF80020C2F38102013A022A0ED8C1
S31508000FB00CEB820C0849DCF87C20A1FB0212D20C4F
S31508000FC0DA601A6842F001021A60BDE8F08F3A2228
S31508000FD0F6E700BFF369FFEFC5B3A29168550008AD
S31508000FE0903802402DE9F04F85B01F464FF0000EAD
S31508000FF00DF10408DDF83C90109EC4460EF101047C
S31508001000B0FBF1F50A2C01FB150E28468CBF002310
S315080010100123002D12F80EB02546A64608BF002368
S315080010200CF801BB002BE9D10E9B13F1000B18BF7E
S315080010304FF0010B1FB1BBF1000F00D0013FB9F112
S31508001040000F02D0BBF1000F1FD1A7420BD9B9F18F
S31508001050000F14BF4FF0300A4FF0200A01355046F2
S31508001060B047AF42FAD1B9F1000F02D1BBF1000F78
S3150800107008D1444414F8010DB047A045FAD105B08B
S31508001080BDE8F08F2D20B047F3E72D20B047DCE709
S315080010902DE9F0474F4F84B004460D46164607F132
S315080010A00C0907F12008207830B1252807D001342B
S315080010B0B04720780028F8D104B0BDE8F0876078FA
S315080010C0302847D002340021A0F13003092B4FF015
S315080010D000030AD803EB830300EB430314F8010B60
S315080010E0A0F13002303B092AF4D96C2821D06428B3
S315080010F023D00CD8252842D030D9582832D0632896
S31508001100D1D105F1040A2878B0475546CBE77328AC
S3150800111037D052D9752841D14FF0000E28683A4683
S31508001120019102960A21CDF800E00435FFF75AFF2F
S31508001130B9E7207801346428DBD12868043500280B
S315080011403EDB0022019102960A2100923A46FFF7F9
S3150800115049FFA8E7A07801210334B5E70028A2D102
S31508001160013CA0E74FF0000E28684246019102961E
S315080011701021CDF800E00435FFF734FF93E7B047B8
S3150800118091E72B680435187803F1010A00288AD0FC
S31508001190B0471AF8010B0028FAD184E7782882D1DB
S315080011A04FF0000E28684A46019102961021CDF8A4
S315080011B000E00435FFF716FF75E77028F0D072E7F0
S315080011C0012201910296404200920A213A46FFF70F
S315080011D009FF68E7305600080368012B08D0022B80
S315080011E005D10A4600F108010448FFF751BF7047C8
S315080011F00A4600F10C018068FFF74ABF64560008EA
S3150800120010B582B00C4602A9224641F8040D0348DF
S31508001210FFF73EFF0A20A04702B010BD845600081B
S3150800122008B500F033FE00F04DFE024B0122002007
S315080012301A6008BD74F20020F0B51B4C87B02579FA
S31508001240019115B1FF2007B0F0BD01392579114488
S3150800125045F00805B1F5001F257106D32379FF204F
S3150800126003F0F703237107B0F0BD1546064605AA35
S31508001270084604A91F4600F097FC01460028EDD150
S315080012800DF1180E05AB04AA01A84EF80C1D7146FF
S3150800129000F0AEFC0028E1D1039A0123A66025617F
S315080012A06761E260A361CEE774F20020F0B51C4CDA
S315080012B087B0237901911BB1FF25284607B0F0BDF9
S315080012C001392379114443F00803B1F5001F23714E
S315080012D007D32379FF2503F0F7032846237107B0C0
S315080012E0F0BD1646074605AA084604A900F05CFCA8
S315080012F005460028EDD106A905AB04AA01A841F8C0
S315080013000C5D00F075FC05460028E2D132463846E9
S31508001310039952F02CFC237903F0F7032371CCE7E9
S3150800132074F200202DE9F0471B4C82B025791DB1D7
S31508001330FF2002B0BDE8F087451E2679DFF85C90ED
S31508001340154446F004064D45267107D92379FF2032
S3150800135003F0FB03237102B0BDE8F0871646884602
S31508001360824601AA284669461F4600F01DFC002849
S31508001370ECD1CA45EAD801AA6946504600F014FCE1
S315080013800028E3D10AF100630122C4F81C80236215
S315080013906662A762E262CCE774F20020FFFF1F00D4
S315080013A02DE9F043194C83B025791DB1FF2003B010
S315080013B0BDE8F08325790646DFF8549045F0020526
S315080013C04845257107D92379FF2003F0FE032371C9
S315080013D003B0BDE8F08390460D4601AA04F1380132
S315080013E01F4600F0E1FB0028EDD1691E8819484523
S315080013F0E9D801AA04F13C0100F0D6FB0028E2D1A5
S315080014000123C4F840806764A364D0E774F200201F
S31508001410FFFF1F002DE9F041464C88B023682BB921
S3150800142001204FF05FFF2368002BF9D00027012623
S31508001430DFF808810520404900F0ACF8E36C5BB1A1
S315080014402379256D03F0FE03237125B1616D002212
S315080014500220A8472765E764E36A13B3636A002B8B
S3150800146065DD002502E0636AAB4260DDE3690020C2
S31508001470216A5A5D00232944013500F099FD0028A8
S31508001480F1D04146052000F085F8FF212379A56AA9
S3150800149003F0FB0323711DB100220120A847A762B0
S315080014A0E762A36C5BB3226CA36B002AE06B009621
S315080014B018BF32468342029701920AD8002103F1E7
S315080014C01002013306FA02F2984241EA0201F6D204
S315080014D00291684600F00EFE41F2883000F00EFDDB
S315080014E023790028656C03F0FD030CBF0021FF215A
S315080014F023711DB100220320A8476764A764A36966
S315080015001BB901204FF0EEFE98E704F1080007C862
S3150800151052F02DFB2379656903F0F703237125B192
S31508001520002211461046A8476761A761E9E700212E
S31508001530ACE700BF74F20020585700086C57000843
S3150800154039B1012921D002290CBF4FF400714FF49B
S3150800155040710F4B0B281A6988BF043022F4407279
S315080015601A611A69114319611A6922F0F8021A6197
S315080015701A6942F0020242EAC00018611A6942F486
S3150800158080321A61BFF34F8F70474FF48071E0E7DE
S31508001590003C02400EB4F0B58AB001220FAB1546E6
S315080015A0029253F8041B1E4601930B780491052DED
S315080015B08CBF00240124002B0CBF002204F001027A
S315080015C052B1252B10D011F8013F002B0CBF002279
S315080015D004F00102002AF4D102A900F05DF80AB06D
S315080015E0BDE8F04003B070474B788A1CA3F1300180
S315080015F0092905D812F8013BA3F130010929F9D9BF
S315080016006C2B0AD0642B28D01DD8582B25D0632BD9
S315080016100ED0ABB313781146C9E71378511C642B67
S315080016201CD026D9732B02D02ED8702B26D10A4669
S315080016300AAB3168043603EB8503013543F8181CF9
S3150800164011461378B3E7732BF2D002D8702BEFD07C
S31508001650E0E7752B01D0782BDCD111460AAB34684C
S315080016606A1C043603EB85070B78154647F8184CB1
S315080016709DE7582BF2D0632BD9D053B1537896E710
S3150800168012F8013C511E92E7752BE7D0782BE5D06E
S31508001690F4E70A46F6E700BF2DE9F0418E46EFF378
S315080016A01183102B4AD0274C1022A36182F311888C
S315080016B04FF000080127244A2369874012681F4211
S315080016C0CEF8042016D0A368764604EB431503F13A
S315080016D0010C1C35BCF11F0F0FCE0FC596E80F0085
S315080016E085E80F001BD82368C4F808C01F2B1BD831
S315080016F001332360636937EA030308D1B8F1000FA1
S3150800170002D1A36983F311880020BDE8F0817046F1
S315080017100E49FFF761FD0A204EF02AF8EEE700238E
S31508001720A36023681F2BE3D9E368A26801336260CC
S31508001730E360636937EA0303E0D0E8E74FF001089E
S31508001740004CB7E7AC2E002090FD002071F7040886
S31508001750F0B5ADF21C4D00244DF0FAFF4EF072F9CB
S3150800176033490520FFF716FF4EF0B2F903A80C22FD
S31508001770304903940494059400F0D6F9059D052094
S31508001780049B039A2C490095FFF704FF059B043335
S3150800179004D03EF035FC0DF21C4DF0BD049E05202C
S315080017A026493246FFF7F6FE2046FFF739FD24495B
S315080017B00520FFF7EFFE31464FF4002000F08AFAC5
S315080017C086B3204F351BE11906A8B5F5806F28BFEB
S315080017D04FF480652A4600F0A7F904F500202C444A
S315080017E02A4606A900F028FAA642EBD8164F002585
S315080017F031464FF4802000F06DFA741B05F5802001
S315080018003946B4F5806F28BF4FF4806425442246D4
S3150800181000F012FA2744AE42EFD83EF0F1FB0DF283
S315080018201C4DF0BD31464FF4802000F053FAB0E766
S315080018309C56000804001300BC560008E45600082D
S31508001840085700081000130000000808F0B50D46F8
S315080018508BB00446002800F000819B4B1B689B0652
S3150800186000F1A38063785BB1002D00F01F81E86862
S31508001870002800F0D680954B01381A6818606378FE
S31508001880934E1B0693480027326803F0407E924920
S3150800189042F003023260036843F440330360019761
S315080018A00A6823780192019E9B06A07826F0406676
S315080018B003F040638004E2783343277900F4F80C98
S315080018C012040193BE03019B02F44032B6B223F020
S315080018D040734EEA030394F806E00193019863798E
S315080018E020F4F8001B034CEA000003F4405301906F
S315080018F0019820F4403002434FEA8E20019200F40A
S315080019004060019A22F440421643E2790196120297
S31508001910019E02F4407226F440563343267A019318
S31508001920019B23F4406318430190019820F440700A
S3150800193002430192019B23F0FF0333430193019B6A
S315080019400A680B60BEF1000F0AD0002D00F0A080D7
S315080019502B68B3F5001F51D2604A116813602779C6
S3150800196037B1002D00F086805D4B6A6819681A60E9
S31508001970637873B1002D00F0C580E86818B3237842
S31508001980012B2FD0002B5AD1AA68564B126819681A
S315080019901A60504B00201A6822F440321A601A68FE
S315080019A022F004021A600BB0F0BD02274E4E4FF427
S315080019B03D724E4B02A900200297049605920693A3
S315080019C0FFF76AFE4EE74A4B40F226320227464E9A
S315080019D002A90693029704960592FFF75DFE2378FF
S315080019E0012BCFD1AB68E96819448B42D1D23D4867
S315080019F0026843F8042B9942FAD8CAE740F219322A
S31508001A003C4B0227384E02A90020029705920693FE
S31508001A100496FFF741FE314A2B681168136027794F
S31508001A209EE740F2FA22324B02272F4E02A9059270
S31508001A30029704960693FFF72FFEE8681BE7022530
S31508001A40294C4FF44F722C4B02A90020029504949E
S31508001A5005920693FFF720FE9BE70227224E40F2E7
S31508001A60EE22264B02A90297049605920693FFF7E3
S31508001A7013FEF2E602271C4E40F21F32204B02A943
S31508001A8028460297049605920693FFF705FE6BE72C
S31508001A900227154E4FF44672194B02A9284602979B
S31508001AA0049605920693FFF7F7FD51E702270E4EB7
S31508001AB040F2F922124B02A928460297049605928B
S31508001AC00693FFF7E9FDD2E6081000A0101000A063
S31508001AD00C1000A0001000A0141000A0181000A000
S31508001AE01C1000A0201000A038C20508F4890508BB
S31508001AF0288A05083C8A0508C84B0508EC890508A4
S31508001B001C4E05080227064E40F22532054B02A94F
S31508001B1028460297049605920693FFF7BDFD2CE723
S31508001B2038C205081C4E0508F0B589B00F4615469B
S31508001B3006466C46F8B185B1002321461548A360D0
S31508001B40E3600097636002960395FFF77FFE124AEB
S31508001B5013689B06FCD409B0F0BD02210F4840F279
S31508001B6057220F4B00912146029028460392049370
S31508001B70FFF792FDE0E7094B4FF0020E40F25622BE
S31508001B8069460293074BCDF800E003920493FFF7EA
S31508001B9083FDD0E7ECC10508081000A038C2050887
S31508001BA0986305080C7E050830B401230E4D4FF4E2
S31508001BB0004401E055F8044FA0420ADB01330C2B20
S31508001BC0F8D10B204FF4802308600020136030BC46
S31508001BD07047013B054850F823000B60241A002083
S31508001BE0146030BC704700BF2C57000828570008FF
S31508001BF0F8B50E682EB90668B6F5001F09D3FF209A
S31508001C00F8BD0568002DFAD1A6F50016B6F5001F31
S31508001C10F5D2174605460C461A4639463046FFF7AA
S31508001C20C3FF0028EBD123680BB12E60F8BD06F57B
S31508001C3000162660F8BD00BF2DE9F043234C83B09B
S31508001C40237923B1FF25284603B0BDE8F083431E58
S31508001C5026791F4D134446F00406AB42267108D96F
S31508001C602379FF2503F0FB032846237103B0BDE85B
S31508001C70F08317468846064601AA18466946FFF7BE
S31508001C8093FF0028ECD1AE42EAD801AA694630464D
S31508001C90FFF78AFF05460028E2D18FB106F10066F4
S31508001CA0C1464744A6EB080606EB0901002019F8C9
S31508001CB0012B002300F07CF90028D1D14F45F3D140
S31508001CC0237903F0FB032371BDE700BF74F20020FC
S31508001CD0FFFF1F00F0B5224C89B023791BB1FF2501
S31508001CE0284609B0F0BD237906461E4F43F0010386
S31508001CF0B842237107D92379FF2503F0FE03284646
S31508001D00237109B0F0BD0D4601AA04F13001FFF7B1
S31508001D104BFF0028EFD1691E8819B842EBD801AAF3
S31508001D2004F13401FFF740FF05460028E3D1636B51
S31508001D300226226B02A9013303A803959B1A059272
S31508001D400796069300F084FA237920B103F0FE0380
S31508001D50FF252371C4E703F0FE032371C0E700BF24
S31508001D6074F20020FFFF1F0042E700BF054A01305A
S31508001D701379DBB205D1DB0703D5002101235165B1
S31508001D80D364704774F20020044B1A79D20703D53E
S31508001D90FF2101225965DA64704700BF74F20020FA
S31508001DA0F0B5354C257D012D19D0344D4FF0F30E85
S31508001DB003274FF0010C2E6946F080762E612E69B6
S31508001DC084F814C046F000762E61C5F80CE027703A
S31508001DD02161B8424ED8DFE800F017283B040220FC
S31508001DE0F0BD2648046924F440740461046944F487
S31508001DF040740461046944F0010404610A604B609C
S31508001E00BFF34F8F0020F0BD1C4BD2B2186920F4E7
S31508001E104070186118691861186940F00100186166
S31508001E200A70BFF34F8F0020F0BD144B92B21869A9
S31508001E3020F440701861186940F4807018611869B8
S31508001E4040F0010018610A80BFF34F8F0020F0BDF3
S31508001E500A4B186920F440701861186940F400703C
S31508001E601861186940F0010018610A60BFF34F8FC6
S31508001E700020F0BD0020F0BDD4FC0020003C02404C
S31508001E80704700BF704700BF704700BF054B1A690F
S31508001E90002A01DB0120704703490020034A5960E4
S31508001EA05A607047003C024023016745AB89EFCD75
S31508001EB0034A0020136943F000431361704700BFCB
S31508001EC0003C0240054B5A69D20705D50449002053
S31508001ED0044A99609A60704701207047003C0240A6
S31508001EE03B2A19087F6E5D4C034A0020536943F06C
S31508001EF001035361704700BF003C024070B582B0D1
S31508001F000023294E05466846284CB36151F010F85F
S31508001F1001E06A1C0ED1E368DB03FAD4E068E368E3
S31508001F2010F0F20014D113F001030ED00123E36080
S31508001F3002B070BD01A850F0FBFF25B19DE80C006A
S31508001F409B1A9D42E7D20320F2E7184602B070BDFD
S31508001F509C0703D5B36943F02003B361134BDB68D1
S31508001F60D80603D5B36943F01003B3610F4BDB689A
S31508001F70990603D5B36943F00803B3610B4BDB68D5
S31508001F805A0603D5B36943F00403B361074BDB680C
S31508001F901B0603D5B36943F00203B361034BF22270
S31508001FA00120DA6002B070BDD4FC0020003C02407B
S31508001FB02DE9F041364C257D012D02D10220BDE8E0
S31508001FC0F0811F46012305464CF2503090460E46D6
S31508001FD02375FFF793FF00BB032D15D8DFE805F03F
S31508001FE0460234212B4B1FFA88F2196921F44071F5
S31508001FF01961196941F480711961196941F0010182
S3150800200019613280BFF34F8F4CF25030FFF776FFDD
S31508002010204A136923F00103136100232375BDE8E1
S31508002020F0811C4B1A6922F440721A611A6942F44B
S3150800203040721A611A6942F001021A61C6F80080F4
S315080020407760BFF34F8FDFE7124B1A6922F44072AD
S315080020501A611A6942F400721A611A6942F0010299
S315080020601A61C6F80080BFF34F8FCDE7094B5FFAB8
S3150800207088F2196921F44071196119691961196998
S3150800208041F0010119613270BFF34F8FBCE700BF01
S31508002090D4FC0020003C0240044A4CF250305369FC
S315080020A043F002035361FFF729BF00BF003C02401B
S315080020B00F4B03291A6922F440721A6111D01A6962
S315080020C002290CBF42F4004242F004021A61084A8F
S315080020D0136943F4803343EA00201061BFF34F8F3E
S315080020E07047196948F204020A431A61EFE700BF0C
S315080020F0003C0240F8B53B4D2B7D012B28D0044609
S31508002100012023682875DA070DD56368A668834217
S315080021104CF2503054D0FFF7F1FE18B9324B5A69D9
S3150800212016435E6123689F0726D45E0712D41907F3
S3150800213007D52D4E0020227C716921F00C010A4337
S315080021407261DA0625D49B062CD400232B75F8BDBC
S315080021500220F8BD4CF250306669FFF7CFFE38B959
S315080021602149224A4F69224B3A40334013434B6177
S3150800217023681907E5D5DCE74CF25030E668FFF727
S31508002180BDFE10B9F6B21B4B1E7023685E07CED58E
S31508002190E0E74CF25030A669FFF7B0FED8B12368E5
S315080021A09B06D2D54CF25030E469FFF7A7FE00280B
S315080021B0CBD10D4A93699BB243EA04439361C4E7C2
S315080021C0FFF79CFE0028ADD1074A536923EA0603A8
S315080021D053612368A7E7044A074B91690B403343C9
S315080021E09361DCE7D4FC0020003C02400FFFFF0FA0
S315080021F0F00000F0153C02400000FFFF114A3F23A3
S315080022000360153252F8011C0F4B0B40836013789C
S31508002210DBB2AA2B04D01378CC2B14BF5523CC23BE
S31508002220084AC360094B51690B404361536903F07F
S315080022300C03036193699BB2836193691B0CC361A9
S31508002240704700BF003C02400000FF0FF00000F09E
S315080022502DE9F843264E337D012B03D10227384654
S31508002260BDE8F883012304464CF25030884633759E
S31508002270FFF744FE074638BB4FF0FF33C8F8003077
S315080022802368012B25D0A568E3682B449D421BD201
S31508002290DFF8609005E0E3680135A2681344AB42B5
S315080022A012D9217C2846FFF74BF94CF25030FFF73C
S315080022B025FED9F8103023F0FA03C9F810300028A3
S315080022C0E9D00746C8F80050002338463375BDE8FC
S315080022D0F8836168207CFFF7EBFE4CF25030FFF77D
S315080022E00DFE044A044B074611690B401361EBE7E0
S315080022F0D4FC0020003C0240FB7FFFFF154B1A7DF3
S31508002300012A1DD0144A116970B541F08071012463
S31508002310F3251C751161116941F000711161D560D1
S315080023200268A2420ED08568027CC6682846114615
S315080023301C705E60DD601A72FFF702F9002070BD3E
S315080023400220704702224168007C1A70FFF7B0FE2F
S31108002350002070BDD4FC0020003C0240B8
S3150800235CBA13000004001A37000804016053000879
S3150800236C0C3A520008975200086802000824040028
S3150800237C00B74C0008020405696E7400030407FDD7
S3150800238C520008030805255200080308048B52005E
S3150800239C08030106E7520008030108E55200080382
S315080023AC0205C15100080302071853000803040567
S315080023BC2A520008030407F8520008030807F352C8
S315080023CC0008040A530008036D2C0000000572006F
S315080023DC000006720000000304040E5200080308ED
S315080023EC049052000804FB530008046525000000FD
S315080023FC07455200046C95000000080252000805B7
S3150800240C3272000000091452000801130201D900A7
S3150800241C00000ABC5100080115027D0000000B6E75
S3150800242C0001160272000000000CE451000801F6C7
S3150800243C01010D12540008015201A00000000118F8
S3150800244C0100000EDF510008015201250000000AA8
S3150800245C6B520008015401720000000A7C520008F5
S3150800246C0155017D000000000D3E530008010E01C8
S3150800247CA0000000015A0100000E75520008010E5A
S3150800248C012C0000000E83520008010E012C0000DE
S3150800249C000A6B5200080110012C0000000ACB51EF
S315080024AC00080111012C000000000FEF5100080173
S315080024BCB83805000854010000019C1708000010E4
S315080024CC0154000801BA720000004B390008082BA9
S315080024DC53000801BB72000000083352000801BB08
S315080024EC72000000080B54000801BB7200000011B2
S315080024FC73770001BB72000000085B53000801BC2F
S3150800250C72000000081353000801BC720000001288
S3150800251C4008000038050008DF4A000801C2E90136
S3150800252C000013500800006939000814DF4A000837
S3150800253C155B0800000152000012170800003E0542
S3150800254C0008F74A000801C50F020000132E080000
S3150800255C0081390008132308000099390008001275
S3150800256CD900000044050008174B000801D1B50333
S3150800257C00001617080000440500084F4B00080118
S3150800258CFF0149020000132E080000B13900081398
S3150800259C23080000C9390008001617080000500562
S315080025AC00086F4B0008010C0270020000132E087D
S315080025BC0000E13900081323080000F5390008006B
S315080025CC16400800005C050008874B000801F90155
S315080025DC9B02000013500800000D3A000814874BA4
S315080025EC0008155B080000015300001617080000C8
S315080025FC5E0500089F4B000801FD01C2020000138E
S3150800260C2E080000253A00081323080000393A0062
S3150800261C0800164008000068050008B74B000801BA
S3150800262CFA01ED0200001350080000513A00081494
S3150800263CB74B0008155B0800000153000016170875
S3150800264C000076050008CF4B0008010002140300B1
S3150800265C00132E080000693A0008132308000081AD
S3150800266C3A00080017170800007E0500080200004B
S3150800267C0001F9013B030000132E080000993A00EB
S3150800268C081323080000AC3A0008001717080000C6
S3150800269C860500080200000001FA01620300001317
S315080026AC2E080000C43A00081323080000D73A0085
S315080026BC08001740080000940500080200000001F5
S315080026CC0D02910300001350080000EF3A00081899
S315080026DC9405000802000000155B08000001530071
S315080026EC0019170800009A05000802000000010DE1
S315080026FC02132E080000073B000813230800001AD3
S3150800270C3B0008000012170800004A050008EF4BAA
S3150800271C000801C3DB030000132E080000323B003F
S3150800272C081323080000463B0008001A1708000087
S3150800273C4E0500080200000001C201040000132E19
S3150800274C0800005E3B00081323080000713B0008D4
S3150800275C001A40080000560500080200000001C4D3
S3150800276C2F0400001350080000893B000818560572
S3150800277C000802000000155B080000015200001A50
S3150800278C17080000620500080200000001C4550481
S3150800279C0000132E080000A13B00081323080000B4
S315080027ACB43B0008001A4008000066050008020041
S315080027BC000001C7830400001350080000CC3B003E
S315080027CC08186605000802000000155B08000001E1
S315080027DC5000001A170800007005000802000000D7
S315080027EC01C7A9040000132E080000E43B000813D7
S315080027FC23080000F73B0008001A170800007205AA
S3150800280C00080200000001CCCF040000132E0800BB
S3150800281C000F3C00081323080000233C0008001A8C
S3150800282C17080000A40500080400000001D9F504E7
S3150800283C0000132E0800003B3C0008132308000078
S3150800284C4F3C0008001A40080000A80500080400C0
S3150800285C000001DA230500001350080000673C004D
S3150800286C0818A805000804000000155B08000001FC
S3150800287C5300001A17080000B005000804000000F1
S3150800288C01DA49050000132E0800007F3C000813E6
S3150800289C23080000923C0008001A40080000C005F6
S315080028AC00080400000001FC77050000135008001E
S315080028BC00AA3C000818C005000804000000155BB7
S315080028CC080000015200001717080000CC05000884
S315080028DC040000000101019E050000132E080000EB
S315080028ECC23C00081323080000D53C00080017B5A5
S315080028FC000000DA050008B200000001070106080E
S3150800290C000018DA050008B200000015C200000025
S3150800291C0291641BCE000000011640080000DA057F
S3150800292C0008074C0008011B02F4050000135008A8
S3150800293C0000ED3C000814074C0008155B08000065
S3150800294C015200001617080000DC0500081F4C0091
S3150800295C080128021B060000132E080000053D007E
S3150800296C081323080000193D00080016400800004B
S3150800297CE20500083F4C0008012202460600001337
S3150800298C50080000313D0008143F4C0008155B0840
S3150800299C0000015300001640080000E8050008571F
S315080029AC4C00080123027106000013500800004968
S315080029BC3D000814574C0008155B0800000153002D
S315080029CC001640080000EA0500086F4C00080124B0
S315080029DC029C0600001350080000613D0008146FA5
S315080029EC4C0008155B080000015300001717080077
S315080029FC00EC05000802000000011B02C3060000DB
S31508002A0C132E080000793D000813230800008C3D9E
S31508002A1C0008001740080000EE0500080200000038
S31508002A2C011C02F20600001350080000A43D000821
S31508002A3C18EE05000802000000155B08000001539B
S31508002A4C00001640080000F0050008874C00080135
S31508002A5C25021D0700001350080000BC3D00081491
S31508002A6C874C0008155B080000015300001717086F
S31508002A7C00000406000802000000012202440700B8
S31508002A8C00132E080000D43D00081323080000E7A5
S31508002A9C3D00080017170800000C06000802000085
S31508002AAC000123026B070000132E080000FF3D00EF
S31508002ABC081323080000123E000800171708000028
S31508002ACC14060008020000000124029207000013F5
S31508002ADC2E0800002A3E000813230800003D3E007D
S31508002AEC080017170800002006000802000000015D
S31508002AFC2502B9070000132E080000553E00081CD5
S31508002B0C230800000C2002400016170800002A06AD
S31508002B1C00089F4C0008012B02E0070000132E0842
S31508002B2C0000683E000813230800007E3E000800DB
S31508002B3C1D2A060008B2130000F40700001E0150F7
S31508002B4C027400001F36060008B21300001E01505E
S31508002B5C0274000000001FD4050008E20000001EE5
S31508002B6C0150027400000020D351000802DD033A1C
S31508002B7C080000216D656D0002DD3A08000022563A
S31508002B8C53000802DD7200000000230472000000E6
S31508002B9C24B051000802D472000000036708000034
S31508002BAC216D656D0002D4670800000856530008AD
S31508002BBC02D67200000000230482000000251801CA
S31508002BCC00006802000888000000019C910A0000B9
S31508002BDC1329010000963E00081335010000C23E79
S31508002BEC00082641010000EE3E0008264D010000B3
S31508002BFC473F00081640080000680200086F4800A6
S31508002C0C08011601CB0800002750080000146F486D
S31508002C1C0008155B08000001530000164008000068
S31508002C2C7002000887480008011B01F6080000130B
S31508002C3C50080000833F00081487480008155B08F5
S31508002C4C000001530000171708000078020008025C
S31508002C5C0000000116011D090000132E0800009B38
S31508002C6C3F00081323080000AE3F0008001717089A
S31508002C7C00008002000802000000011B0144090044
S31508002C8C00132E080000C63F00081323080000D9BD
S31508002C9C3F0008001640080000820200089F480002
S31508002CAC08011E016D0900001350080000F13F00D1
S31508002CBC08149F480008285B080000000016400806
S31508002CCC00009E020008B74800080129019809006F
S31508002CDC0013500800001940000814B748000815DE
S31508002CEC5B080000015000001640080000A0020016
S31508002CFC08CF480008013301C30900001350080027
S31508002D0C003140000814CF480008155B0800000184
S31508002D1C5300001717080000B00200080200000054
S31508002D2C012E01EA090000132E080000494000088C
S31508002D3C13230800005C400008001717080000B8A9
S31508002D4C02000802000000013301110A0000132ECC
S31508002D5C0800007440000813230800008740000888
S31508002D6C0029BA020008200000007F0A0000132977
S31508002D7C0100009F4000081335010000B24000080E
S31508002D8C18BA020008200000002892080000289BA8
S31508002D9C0800001640080000BA020008E7480008B8
S31508002DAC0136016C0A00001350080000C5400008E3
S31508002DBC14E7480008285B08000000001FD0020032
S31508002DCC08B21300001E0150030AE8030000001F96
S31508002DDC98020008B21300001E0150030AE803000B
S31508002DEC0025E2000000F002000848020000019CE1
S31508002DFCB213000013F3000000ED40000826FF0094
S31508002E0C00000E410008280B0100001640080000BF
S31508002E1CF2020008FF480008015A01E60A000013EE
S31508002E2C50080000B841000814FF480008155B0854
S31508002E3C0000015300001717080000FC02000802E6
S31508002E4C000000015A010D0B0000132E080000D0DB
S31508002E5C4100081323080000E34100080017400846
S31508002E6C0000FE02000802000000015B013C0B009A
S31508002E7C001350080000FB41000818FE0200080267
S31508002E8C000000155B080000015300001717080026
S31508002E9C000403000802000000015B01630B00003C
S31508002EAC132E080000134200081C230800000038E3
S31508002EBC02400016400800000603000817490008DF
S31508002ECC015E018C0B00001350080000324200080A
S31508002EDC1417490008285B08000000001740080072
S31508002EEC002403000804000000016701BB0B000066
S31508002EFC13500800005A420008182403000804005E
S31508002F0C0000155B080000015300001717080000A5
S31508002F1C2C03000802000000016701E20B000013F5
S31508002F2C2E08000072420008132308000085420090
S31508002F3C080017400800002E0300080200000001D4
S31508002F4C6801110C000013500800009D4200081877
S31508002F5C2E03000802000000155B08000001530050
S31508002F6C0017170800003403000802000000016867
S31508002F7C01380C0000132E080000B5420008132374
S31508002F8C080000C842000800174008000036030075
S31508002F9C0802000000016901670C000013500800C4
S31508002FAC00E0420008183603000802000000155B12
S31508002FBC0800000153000017170800003C0300081E
S31508002FCC020000000169018E0C0000132E08000097
S31508002FDCF842000813230800000B430008001640AB
S31508002FEC0800003E0300082F490008016D01B70CC4
S31508002FFC0000135008000023430008142F4900084A
S3150800300C285B080000000017400800005C03000855
S3150800301C04000000017901E60C00001350080000BA
S3150800302C4B430008185C03000804000000155B08F5
S3150800303C000001530000171708000064030008027B
S3150800304C0000000179010D0D0000132E0800006325
S3150800305C430008132308000076430008002A474952
S3150800306C00088B13000013F30000008E43000814AD
S3150800307C4749000828AD0A000015B60A0000029157
S3150800308C6C16400800006603000867490008017DB5
S3150800309C015A0D00001350080000B24300081467CB
S315080030AC490008285B080000000016400800008448
S315080030BC0300087F490008018901850D000013509B
S315080030CC080000DA430008147F490008155B08005D
S315080030DC00015300001717080000860300080600B5
S315080030EC0000018501AC0D0000132E080000F24308
S315080030FC000813230800000A4400080017170800E4
S3150800310C009203000802000000018901D30D00009B
S3150800311C132E080000224400081323080000354427
S3150800312C0008001640080000940300089749000898
S3150800313C018D01FC0D000013500800004D440008D9
S3150800314C1497490008285B08000000001640080080
S3150800315C00B0030008AF490008019601270E0000CD
S3150800316C13500800007544000814AF490008155B95
S3150800317C080000015200001640080000B2030008BF
S3150800318CC7490008019B01520E00001350080000A5
S3150800319C8D44000814C7490008155B080000015344
S315080031AC00001640080000B6030008DF49000801B5
S315080031BC9E017B0E00001350080000A5440008145D
S315080031CCDF490008285B08000000001717080000F4
S315080031DCBC03000802000000019601A20E000013B1
S315080031EC2E080000CD4400081323080000E0440014
S315080031FC08001740080000BE030008020000000182
S3150800320C9701D10E00001350080000F84400081866
S3150800321CBE03000802000000155B080000015300FD
S3150800322C001717080000CE03000802000000019BD7
S3150800323C01F80E0000132E08000010450008132391
S3150800324C08000023450008001640080000EC03009F
S3150800325C08FF49000801A701230F000013500800B6
S3150800326C003B45000814FF490008155B08000001DF
S3150800327C5300001640080000EE030008174A000821
S3150800328C01AB014C0F000013500800005345000811
S3150800329C14174A0008285B080000000017170800D6
S315080032AC00F60300080200000001A701730F0000D6
S315080032BC132E0800007B45000813230800008E45D2
S315080032CC000800174008000020040008040000004D
S315080032DC01BD01A20F00001350080000A645000806
S315080032EC182004000804000000155B0800000153B0
S315080032FC000017400800002C04000802000000011A
S3150800330CBF01D10F00001350080000BE4500081875
S3150800331C2C04000802000000155B0800000153008D
S3150800332C001717080000360400080200000001BF49
S3150800333C01F80F0000132E080000D64500081323C9
S3150800334C080000E94500080017400800003804008A
S3150800335C080200000001C0012710000013500800E5
S3150800336C0001460008183804000802000000155B26
S3150800337C0800000153000016400800004404000829
S3150800338C374A000801C40152100000135008000007
S3150800339C1946000814374A0008155B080000015244
S315080033AC00001640080000460400084F4A000801B1
S315080033BCC5017D10000013500800003146000814A2
S315080033CC4F4A0008155B0800000152000017170841
S315080033DC00004E0400080200000001C401A41000FD
S315080033EC00132E0800004946000813230800005C49
S315080033FC46000800174008000056040008020000A2
S3150800340C0001C901D31000001350080000744600CF
S3150800341C08185604000802000000155B0800000195
S3150800342C520000171708000060040008020000008C
S3150800343C01C901FA100000132E0800008C4600087A
S3150800344C1323080000AB460008001640080000626B
S3150800345C040008674A000801CA012311000013502A
S3150800346C080000C346000814674A0008285B0800D1
S3150800347C00000016400800008E0400087F4A000869
S3150800348C01D4014E1100001350080000EB46000849
S3150800349C147F4A0008155B0800000152000016400C
S315080034AC08000090040008974A000801D501791114
S315080034BC000013500800000347000814974A000838
S315080034CC155B080000015200001717080000980445
S315080034DC00080200000001D401A0110000132E08F8
S315080034EC00001B47000813230800002E470008009D
S315080034FC1640080000A0040008AF4A000801D901CC
S3150800350CC911000013500800004647000814AF4ABA
S3150800351C0008285B08000000001740080000C604D5
S3150800352C00080400000001E101F81100001350081E
S3150800353C00006E47000818C60400080400000015B1
S3150800354C5B080000015300001717080000D204009E
S3150800355C080200000001E1011F120000132E0800EA
S3150800356C008647000813230800009947000800172F
S3150800357C40080000D40400080200000001E2014ED5
S3150800358C1200001350080000B147000818D40400B4
S3150800359C0802000000155B080000015300001640E5
S315080035AC080000DE040008C74A000801EA0179127F
S315080035BC00001350080000C947000814C74A000841
S315080035CC155B080000015300001717080000EC04EF
S315080035DC00080200000001EA01A0120000132E08E0
S315080035EC0000E14700081323080000F44700080010
S315080035FC1740080000EE0400080200000001EF0165
S3150800360CCF12000013500800000C48000818EE04EE
S3150800361C000802000000155B0800000153000017A3
S3150800362C17080000F80400080200000001EF01F674
S3150800363C120000132E080000244800081323080063
S3150800364C0037480008001D7E030008B21300000B63
S3150800365C1300001E0150030AE803001DAA03000804
S3150800366CB2130000201300001E0150030AE80300E1
S3150800367C1DE6030008B2130000351300001E0150A6
S3150800368C030AE803001D12040008B21300004A13CB
S3150800369C00001E0150030AE803001D200400081848
S315080036AC010000631300001E01500208C01E0151E0
S315080036BC0131001D78040008B213000078130000CD
S315080036CC1E0150030AE803001FBC040008B21300CD
S315080036DC001E0150030AE8030000001D1E03000823
S315080036ECB2130000A01300001E0150030AE80300E1
S315080036FC1F56030008B21300001E0150030AE80304
S3150800370C00002B32530008325300080255000111F1
S3150800371C01250E130B030E1B0E11011206101700B2
S3150800372C000224000B0B3E0B030800000324000BBD
S3150800373C0B3E0B030E0000041600030E3A0B3B0B54
S3150800374C49130000053500491300000626004913E5
S3150800375C000007160003083A0B3B0B491300000838
S3150800376C3400030E3A0B3B0B49130000092E0103D8
S3150800377C0E3A0B3B052719200B011300000A3400DF
S3150800378C030E3A0B3B05491300000B340003083AA9
S3150800379C0B3B05491300000C2E00030E3A0B3B0598
S315080037AC2719200B00000D2E013F19030E3A0B3B6F
S315080037BC0527194913200B011300000E0500030EEB
S315080037CC3A0B3B05491300000F2E013F19030E3A1D
S315080037DC0B3B0B27191101120640189742190113B6
S315080037EC0000103400030E3A0B3B0B49130217006A
S315080037FC0011340003083A0B3B0B49130000121D49
S3150800380C01311352015517580B590B0113000013AC
S3150800381C0500311302170000140B0155170000158B
S3150800382C3400311302180000161D013113520155CC
S3150800383C17580B590501130000171D0131131101F7
S3150800384C1206580B590501130000180B0111011229
S3150800385C060000191D01311311011206580B5905E2
S3150800386C00001A1D01311311011206580B590B01D0
S3150800387C1300001B340031131C0B00001C0500310F
S3150800388C131C0600001D8982010111013113011355
S3150800389C00001E8A820100021891421800001F8936
S315080038AC820101110131130000202E01030E3A0B7F
S315080038BC3B0B2719200B0113000021050003083ABE
S315080038CC0B3B0B49130000220500030E3A0B3B0B6E
S315080038DC49130000230F000B0B49130000242E017B
S315080038EC030E3A0B3B0B27194913200B0113000047
S315080038FC252E01311311011206401897421901138E
S3150800390C0000263400311302170000270500311376
S3150800391C000028340031130000290B01110112068E
S3150800392C011300002A0B015517011300002B2E005A
S3150800393C3F193C196E0E030E3A0B3B0B0000006246
S3150800394C03000064030000010052640300006B03CB
S3150800395C00000100530000000000000000D0020027
S3150800396C00D602000006000C003802409F0000003A
S3150800397C0000000000FC020000FE02000006000C1D
S3150800398C103000249F0000000000000000FC02001C
S3150800399C00FE02000006000C043802409F000000DE
S315080039AC0000000000240300002803000006000C99
S315080039BC000001209F000000000000000024030006
S315080039CC002803000006009E049CED00E0000000A1
S315080039DC00000000002A0300002C0300000200353A
S315080039EC9F00000000000000002A0300002C0300C2
S315080039FC0006009E0494ED00E000000000000000A4
S31508003A0C000C0300000E03000006009E0424ED00C3
S31508003A1CE000000000000000002003000024030062
S31508003A2C000200309F000000000000000020030088
S31508003A3C002403000006009E0498ED00E000000038
S31508003A4C0000000000180300001A03000006009E80
S31508003A5C0494ED00E00000000000000000280300BC
S31508003A6C002A03000006000C230002039F00000036
S31508003A7C0000000000280300002A03000006009E30
S31508003A8C04A0ED00E0000000000000000014030094
S31508003A9C001803000001005300000000000000009D
S31508003AAC140300001803000006009E0424ED00E031
S31508003ABC00000000000000001E03000020030000A8
S31508003ACC01005300000000000000001E0300002047
S31508003ADC03000006009E0494ED00E00000000000C0
S31508003AEC0000002C0300002E03000006009E042490
S31508003AFCED00E00000000000000000320300003476
S31508003B0C030000010053000000000000000032030F
S31508003B1C00003403000006009E0424ED00E00000BB
S31508003B2C000000000000E8020000EC0200000200A1
S31508003B3C309F0000000000000000E8020000EC02C4
S31508003B4C000006000C083802409F00000000000028
S31508003B5C0000DC020000E802000001005200000030
S31508003B6C0000000000DC020000E802000006000C61
S31508003B7C003802409F0000000000000000EC020024
S31508003B8C00F002000006000C003802409F000000FE
S31508003B9C0000000000F4020000FC020000010051C5
S31508003BAC0000000000000000F4020000FC02000007
S31508003BBC06000C003802409F0000000000000000C0
S31508003BCCFE0200000003000006000C003802409FAD
S31508003BDC0000000000000000060300000A030000B5
S31508003BEC0100500000000000000000060300000A57
S31508003BFC03000006000C003802409F00000000007D
S31508003C0C0000000A0300000C0300000200309F00AD
S31508003C1C000000000000000A0300000C0300000668
S31508003C2C000C0C3802409F00000000000000003C0D
S31508003C3C030000400300000200309F000000000053
S31508003C4C0000003C0300004003000006009E0450E0
S31508003C5CEF00E000000000000000004003000044F4
S31508003C6C03000006009E0414ED00E00000000000AE
S31508003C7C000000480300004C03000001005300003C
S31508003C8C000000000000480300004C03000006007A
S31508003C9C9E0414ED00E00000000000000000540330
S31508003CAC00005C03000006009E040CED00E000001A
S31508003CBC0000000000006403000068030000010017
S31508003CCC53000000000000000064030000680300B5
S31508003CDC0006009E040CED00E00000000000000049
S31508003CEC00780300007A03000006000C3038024006
S31508003CFC9F0000000000000000BA030000BE03008D
S31508003D0C000200329F0000000000000000BA030009
S31508003D1C00BE03000006000C182002409F0000009D
S31508003D2C00000000008E0300009003000006000C43
S31508003D3C002002409F00000000000000009E0300C7
S31508003D4C00A003000006000C082002409F0000009B
S31508003D5C0000000000A6030000A803000006000CE3
S31508003D6C042002409F0000000000000000800300B1
S31508003D7C008603000001005200000000000000004D
S31508003D8C800300008603000006000C303802409FB2
S31508003D9C00000000000000008603000088030000F5
S31508003DAC06000C303802409F00000000000000009E
S31508003DBCAE030000B003000006000C0C2002409F66
S31508003DCC00000000000000009C0300009E03000099
S31508003DDC01005300000000000000009C0300009E38
S31508003DEC03000006000C002002409F0000000000A3
S31508003DFC000000A4030000A6030000010053000005
S31508003E0C000000000000A4030000A6030000060042
S31508003E1C0C082002409F0000000000000000AC03C4
S31508003E2C0000AE0300000100530000000000000073
S31508003E3C00AC030000AE03000006000C0420024090
S31508003E4C9F0000000000000000B8030000BA030041
S31508003E5C000100530000000000000000C20300002F
S31508003E6CCA0300000400403D249F00000000000027
S31508003E7C0000C2030000CA03000006000C1820024A
S31508003E8C409F0000000000000000000000001E001B
S31508003E9C00000100501E00000078000000010056CA
S31508003EAC78000000880000000400F301509F000011
S31508003EBC00000000000000000000240000000100C3
S31508003ECC512400000078000000010057780000001B
S31508003EDC880000000400F301519F00000000000058
S31508003EEC000008000000240000000200309F240097
S31508003EFC00002600000009000CA286010074001CB4
S31508003F0C9F260000003000000009000CA186010065
S31508003F1C74001C9F300000003600000009000CA23B
S31508003F2C86010074001C9F520000007200000002FB
S31508003F3C00309F0000000000000000080000003C54
S31508003F4C0000000200309F3C000000400000000802
S31508003F5C00700008FE47241A9F4000000044000029
S31508003F6C00010050480000005C00000001005000F1
S31508003F7C00000000000000120000001400000006FB
S31508003F8C000C003802409F000000000000000010E2
S31508003F9C00000012000000010053000000000000A1
S31508003FAC0000100000001200000006000C903802F9
S31508003FBC409F0000000000000000180000001A00D6
S31508003FCC000001005300000000000000001800006B
S31508003FDC001A00000006000C003802409F00000082
S31508003FEC00000000001A0000001C00000006000C6F
S31508003FFC003802409F300000003200000006000C1A
S3150800400C003802409F000000000000000036000047
S3150800401C003C00000006000C883802409F00000097
S3150800402C00000000004A0000004C00000006000CCE
S3150800403C003802409F000000000000000048000005
S3150800404C004A0000000100500000000000000000BB
S3150800405C480000004A00000006000C883802409F01
S3150800406C0000000000000000500000005200000094
S3150800407C0100530000000000000000500000005230
S3150800408C00000006000C003802409F0000000000EB
S3150800409C00000052000000720000000100560000EB
S315080040AC0000000000005200000072000000010031
S315080040BC57000000000000000052000000540000E9
S315080040CC0006000C003802409F680000006A0000D9
S315080040DC0006000C003802409F000000000000009B
S315080040EC0088000000A8000000010050A80000008D
S315080040FCD00200000400F301509F000000000000ED
S3150800410C000088000000A80000000200309FA800EC
S3150800411C0000AA00000009000C424B4C0074001C5D
S3150800412C9FAA000000B600000009000C414B4C0089
S3150800413C74001C9FB6000000BC00000009000C426D
S3150800414C4B4C0074001C9FD6000000E000000002D7
S3150800415C00309FE0000000E200000009000C424B12
S3150800416C4C0074001C9FE2000000EE0000000900E1
S3150800417C0C414B4C0074001C9FEE000000F4000030
S3150800418C0009000C424B4C0074001C9FFE000000FA
S3150800419C1E0200000200309F26020000D00200001A
S315080041AC0200309F0000000000000000880000009C
S315080041BC9000000006000C003802409F000000002A
S315080041CC0000000094000000960000000100530057
S315080041DC0000000000000094000000960000000695
S315080041EC000C003802409F000000000000000096FA
S315080041FC0000009800000006000C003802409F00E2
S3150800420C000000000000009C000000A00000000157
S3150800421C0053A0000000A800000002007500000072
S3150800422C0000000000009E000000A0000000060030
S3150800423C0C003802409FB6000000B80000000600CB
S3150800424C0C003802409F0000000000000000BC0073
S3150800425C0000C000000006000C003802409F000059
S3150800426C000000000000C4000000C60000000100A9
S3150800427C530000000000000000C4000000C6000047
S3150800428C0006000C003802409F00000000000000E9
S3150800429C00C6000000C800000006000C00380240EA
S315080042AC9F0000000000000000CC000000CE0000BB
S315080042BC000100530000000000000000CC000000C4
S315080042CCCE00000006000C003802409F00000000DB
S315080042DC00000000CE000000D000000006000C0014
S315080042EC3802409F0000000000000000D4000000C7
S315080042FCD60000000100530000000000000000D4A6
S3150800430C000000D600000006000C003802409F0092
S3150800431C00000000000000D6000000D800000006CF
S3150800432C000C003802409FEE000000F0000000066A
S3150800433C000C003802409F0000000000000000F44A
S3150800434C000000F800000006000C003802409F0030
S3150800435C00000000000000FC000000FE0000000148
S3150800436C00530000000000000000FC000000FE00E6
S3150800437C000006000C003802409F000000000000F8
S3150800438C0000FE0000001E0200000400F301509F0E
S3150800439C26020000D00200000400F301509F000022
S315080043AC000000000000FE000000000100000600EE
S315080043BC0C003802409F1601000018010000060088
S315080043CC0C003802409F0000000000000000240189
S315080043DC00002601000006000C003802409F000071
S315080043EC0000000000001C0100002401000006006B
S315080043FC0C186C40299F00000000000000001C01EE
S3150800440C00002401000006000C043802409F00003E
S3150800441C0000000000002A0100002C010000010029
S3150800442C5300000000000000002A0100002C0100C7
S3150800443C0006000C003802409F0000000000000037
S3150800444C002C0100002E01000006000C003802406A
S3150800445C9F420100004401000006000C003802408F
S3150800446C9F0000000000000000480100004E0100FB
S3150800447C0006000C403802409F00000000000000B7
S3150800448C00600100006201000006000C007000408C
S3150800449C9F0000000000000000680100006A01008F
S315080044AC0006000C047000409F7E0100008001008D
S315080044BC0006000C047000409F000000000000007D
S315080044CC00540100005601000001005200000000D3
S315080044DC00000000540100005601000006000C40C4
S315080044EC3802409F00000000000000005601000042
S315080044FC5801000006000C403802409F00000000DE
S3150800450C000000006601000068010000010053006D
S3150800451C00000000000000660100006801000006AB
S3150800452C000C007000409F00000000000000008492
S3150800453C0100008A01000006000C007000409F0074
S3150800454C0000000000000090010000920100000627
S3150800455C000C047000409FAA010000AC0100000684
S3150800456C000C047000409F00000000000000008E44
S3150800457C010000900100000100530000000000003B
S3150800458C00008E0100009001000006000C0070006F
S3150800459C409F0000000000000000B8010000BC01AC
S315080045AC000006000C003C02409F000000000000C2
S315080045BC0000C4010000C601000006000C003C0205
S315080045CC409F0000000000000000CE010000D00152
S315080045DC00000100530000000000000000CE01009E
S315080045EC00D001000006000C003C02409F000000B1
S315080045FC0000000000D0010000D201000006000CEB
S3150800460C003C02409F0000000000000000DC010096
S3150800461C00E201000006000C083802409F0000006A
S3150800462C0000000000E8010000EA01000006000C8A
S3150800463C003802409F0000000000000000E6010060
S3150800464C00E8010000010052000000000000000014
S3150800465CE6010000E801000006000C083802409F3D
S3150800466C0000000000000000EE010000F001000050
S3150800467C06000C083802409F0000000000000000ED
S3150800468CF8010000FC010000010052FC01000006C4
S3150800469C020000020075000000000000000000F88F
S315080046AC0100001E02000006000C083802409F009C
S315080046BC00000000000000FA010000FC01000006E2
S315080046CC000C083802409F10020000120200000677
S315080046DC000C083802409F0000000000000000266D
S315080046EC0200002C02000006000C083802409F004D
S315080046FC0000000000000032020000340200000630
S3150800470C000C003802409F0000000000000000303A
S3150800471C02000032020000010052000000000000F6
S3150800472C0000300200003202000006000C083802B5
S3150800473C409F0000000000000000380200003A020A
S3150800474C000006000C083802409F5402000056026E
S3150800475C000006000C083802409F0000000000000C
S3150800476C00005E0200006202000006000C003C021B
S3150800477C409F00000000000000006A0200006C0266
S3150800478C000001005300000000000000006A02004F
S3150800479C006C02000006000C003C02409F00000062
S315080047AC00000000006C0200006E02000006000CFF
S315080047BC003C02409F00000000000000007602004A
S315080047CC007C02000006000C083802409F0000001E
S315080047DC000000000084020000860200000100535D
S315080047EC00000000000000008402000086020000A1
S315080047FC06000C083802409F00000000000000006C
S3150800480C860200008802000006000C083802409F49
S3150800481C0000000000000000900200009202000058
S3150800482C01005300000000000000009002000092F6
S3150800483C02000006000C083802409F000000000029
S3150800484C0000001C00000002005C230008040000A5
S3150800485C00000068020008240400000000000000A4
S3150800486C0000000000000002000000040000000622
S3150800487C0000000000000000000000080000000A0C
S3150800488C00000012000000140000000000000000E8
S3150800489C0000001A0000001C000000300000003266
S315080048AC0000000000000000000000360000003880
S315080048BC0000003A0000003C000000000000000068
S315080048CC000000380000003A0000004A0000004CC6
S315080048DC0000000000000000000000520000005418
S315080048EC000000680000006A0000000000000000DC
S315080048FC0000008A0000008C0000008E000000906A
S3150800490C00000000000000000000009E000000A04F
S3150800491C000000B6000000B800000000000000000F
S3150800492C000000D6000000D8000000EE000000F0E1
S3150800493C0000000000000000000000FE0000001E41
S3150800494C0200002602000092020000960200009E59
S3150800495C0200000000000000000000FE000000003D
S3150800496C01000016010000180100000000000000FC
S3150800497C0000001C0100001E010000240100002696
S3150800498C01000000000000000000002C0100002EB1
S3150800499C0100004201000044010000000000000074
S315080049AC000000480100004A0100004C0100004EBE
S315080049BC01000000000000000000004A0100004C45
S315080049CC0100006001000062010000000000000008
S315080049DC0000004E01000050010000680100006A4A
S315080049EC0100007E010000800100000000000000AC
S315080049FC0000008401000086010000880100008A7E
S31508004A0C010000000000000000000086010000887C
S31508004A1C0100009001000092010000AA010000AC00
S31508004A2C0100000000000000000000DC010000DEB0
S31508004A3C010000E0010000E2010000000000000097
S31508004A4C000000DE010000E0010000E8010000EAB9
S31508004A5C0100000000000000000000FA010000FC44
S31508004A6C0100001002000012020000000000000005
S31508004A7C00000026020000280200002A0200002C72
S31508004A8C0200000000000000000000280200002AB6
S31508004A9C0200003202000034020000000000000090
S31508004AAC000000380200003A0200005402000056CA
S31508004ABC02000000000000000000007602000078EA
S31508004ACC0200007A0200007C0200000000000000D0
S31508004ADC000000D0020000D2020000D4020000D66A
S31508004AEC0200000000000000000000D6020000D8FA
S31508004AFC020000F0020000F2020000FC020000FEB8
S31508004B0C0200000000000000000000DC020000E0CB
S31508004B1C020000E8020000EA020000F4020000FAB3
S31508004B2C0200000003000002030000060300000850
S31508004B3C0300000C03000034030000000000000012
S31508004B4C000000DC020000E002000006030000087A
S31508004B5C03000024030000280300000000000000E6
S31508004B6C000000E8020000EA0200002A0300002CFC
S31508004B7C0300000000000000000000F4020000F62C
S31508004B8C0200000C0300000E0300000000000000E9
S31508004B9C000000F6020000FA0200002003000024C0
S31508004BAC03000000000000000000000003000002E3
S31508004BBC030000180300001A0300000000000000A0
S31508004BCC0000000E0300001003000014030000167A
S31508004BDC030000280300002A030000000000000060
S31508004BEC000000E2020000E6020000EA020000EC07
S31508004BFC02000000000000000000007203000074B0
S31508004C0C030000780300007A03000000000000008F
S31508004C1C0000007403000076030000900300009265
S31508004C2C030000BC030000BE0300000000000000E7
S31508004C3C0000007A0300007C0300008E030000903D
S31508004C4C0300000000000000000000800300008242
S31508004C5C0300009E030000A00300000000000000F3
S31508004C6C0000008203000084030000A6030000A8CD
S31508004C7C0300000000000000000000880300008A02
S31508004C8C030000AE030000B00300000000000000A3
S31508004C9C000000C2030000C6030000C8030000CAD7
S31508004CAC0300000000000000000000F504000002EC
S31508004CBC00B90000000201FB0E0D00010101010004
S31508004CCC0000010000012E2E2F6173702F74617283
S31508004CDC6765742F73746D333266375F626E7661EF
S31508004CEC5F676363002E2E2F6173702F696E636C7A
S31508004CFC756465002E2E2F6173702F617263682F91
S31508004D0C676363002E2E2F6173702F617263682F91
S31508004D1C61726D5F6D5F6763632F636F6D6D6F6E29
S31508004D2C00007461726765745F696E6974686F6F89
S31508004D3C6B2E630001000073696C2E68000200007C
S31508004D4C746F6F6C5F7374646465662E6800030019
S31508004D5C00745F7374646465662E680002000063F1
S31508004D6C6F72655F73696C2E68000400000000059D
S31508004D7C0268020008038E020104020349010401B9
S31508004D8C03372004020349200401033720040203D5
S31508004D9C4920040103372027040203492E037920EE
S31508004DAC040103C30020040203442E0379200401E2
S31508004DBC03C600204B31040203B67F4A040103C61E
S31508004DCC0020040203BA7F2E040103D1003C4E04D2
S31508004DDC0203B27F2E037920040103DB00200402B0
S31508004DEC03AC7F2E037920040103DE00204B31042B
S31508004DFC02039E7F4A040103DE00203503632E035B
S31508004E0C33AC040203857F20040103FB0020040253
S31508004E1C03857F20040103820120040203857F2E6B
S31508004E2C037920040103830120040203847F2E03E3
S31508004E3C79200401038601204B3F040203F67E4ABF
S31508004E4C040103860120040203FA7E2E0401038F53
S31508004E5C012E040203F87E2E037920040103900127
S31508004E6C20040203F77E2E03792004010391012006
S31508004E7C040203F67E2E0379200401039501204BC8
S31508004E8C3F040203E77E4A0401039501200402034A
S31508004E9CEB7E2E040103A1012E040203E67E2E03EB
S31508004EAC7920040103A501204B3F040203D77E4A4F
S31508004EBC040103A50120040203DB7E2E2703793C9B
S31508004ECC040103B10120040203D67E2E03792004C3
S31508004EDC0103B501204B31040203C77E4A040103C2
S31508004EECB50120040203CB7E2E040103BE014A043D
S31508004EFC0203C97E2E037920040103BF01203D0459
S31508004F0C0203C07E20040103C30120040203C47EED
S31508004F1C2E037920040103C601204B31040203B683
S31508004F2C7E4A040103C60120040203BA7E2E04013C
S31508004F3C03CF013C040203B87E2E03792004010337
S31508004F4CD301203D4D2F1F040203A97E2E04010315
S31508004F5CD30120030B2E040203A27E4A040103E5A7
S31508004F6C012E0402039B7E4A040103E70120040276
S31508004F7C03A07E4A037920040103E80120040203F6
S31508004F8C987E58040103EC013C0402039B7E2E0315
S31508004F9C7920040103ED0120040203937E2E0401FB
S31508004FAC03F10120040203967E4A037920040103C7
S31508004FBCF201204B232F1F0402038A7E2E040103C1
S31508004FCCF201204B03957F2E0391012E040203E771
S31508004FDC7D2E040103FC013C0402038B7E2E03790F
S31508004FEC20040103FD0120040203837E2E04010321
S31508004FFC8102204B4D2F1F040203FB7D2E04010357
S3150800500C810220040203FF7D4A04010389022E044F
S3150800501C0203FE7D4A0379200401038A0220040256
S3150800502C03F67D4A040103980220040203E87D2056
S3150800503C040103920220040203F57D4A0379200435
S3150800504C0103970220040203F07D4A04010392022D
S3150800505C2003B97F2E031C2E032B2E03C87D088232
S3150800506C0402031F010401036C2004020314202705
S3150800507C04010363200402031D2E0401035A2E04A3
S3150800508C020326200401035A580402031F2027048E
S3150800509C0103652004020314202703794A0401033B
S315080050AC6F2E040203182E03793C270401039A0277
S315080050BC20040203E67D2E03792E040103A20220A6
S315080050CC040203E57D2E037974040103B50220045A
S315080050DC0203D27D2E04010378202F0402350379AE
S315080050EC2E04013004023304012A2F03212E040254
S315080050FC035B2E040103262E2803772021040203C2
S3150800510C6120040103272E3E040203502E270401B6
S3150800511C03B60220040203C37D20040103C3022E36
S3150800512C040203BD7D2E35037920040103C4022E27
S3150800513C21040203BB7D2027040103C30220350387
S3150800514C7920040203BD7D2E037920040103CB02CA
S3150800515C20040203BC7D2E037920040103CC022013
S3150800516C040203BB7D2E037920040103CD0220041F
S3150800517C0203BA7D4A040103CA0220040203B67D5F
S3150800518C20040103CA0220040203B67D2E0401037F
S3150800519CCD022E040203B37D20040103CD022002A6
S315080051AC2D00010173696C5F7265775F6D656D0023
S315080051BC74656D700073686F727420696E74007014
S315080051CC6C6C736169710073696C5F7772775F6D6C
S315080051DC656D006D6F6465006D70755F636F6E66E7
S315080051EC69670068617264776172655F696E697474
S315080051FC5F686F6F6B007072655F62617365707262
S3150800520C6900666C6F617400737973656D636C6F96
S3150800521C636B5F6572726F72006C6F6E67206C6F72
S3150800522C6E6720696E7400737368696674002E2E37
S3150800523C2F6173702F7461726765742F73746D3375
S3150800524C3266375F626E76615F6763632F7461726D
S3150800525C6765745F696E6974686F6F6B2E6300742B
S3150800526C69636B737461727400706C6C73616E0035
S3150800527C746D7072656700706C6C73616970006C24
S3150800528C6F6E6720646F75626C6500443A5C47699B
S3150800529C744875625C325F41515542494F5F416EA5
S315080052AC64726F69645F53544D33325C53544D3397
S315080052BC325C536F757263655C76612D785C6275CA
S315080052CC696C645F73746D33326637646973636FC4
S315080052DC766572795F67636300756E7369676E6569
S315080052EC642063686172006C6F6E67206C6F6E6702
S315080052FC20756E7369676E656420696E74007569CE
S3150800530C6E7433325F7400776179730073686F72E9
S3150800531C7420756E7369676E656420696E740063B4
S3150800532C63736964720073696C5F646C795F6E731E
S3150800533C65005553425F5243435F50657269706806
S3150800534C434C4B436F6E6669670064617461007306
S3150800535C65747300474E552043313120362E332E53
S3150800536C31203230313730363230202872656C6550
S3150800537C61736529205B41524D2F656D62656464C6
S3150800538C65642D362D6272616E6368207265766966
S3150800539C73696F6E203234393433375D202D6D6C5A
S315080053AC6974746C652D656E6469616E202D6D74F7
S315080053BC68756D62202D6D6370753D636F727465CB
S315080053CC782D6D37202D6D666C6F61742D61626951
S315080053DC3D68617264202D6D6670753D6670763514
S315080053EC2D73702D643136202D67202D4F320069B0
S315080053FC6E745F74007265675F76616C75650077AD
S3150800540C736869667400737973636C6F636B5F6337
S3150800541C6F6E666967004743433A2028474E552006
S3150800542C546F6F6C7320666F722041524D20456D18
S3150800543C6265646465642050726F636573736F721A
S3150800544C7320362D323031372D71322D75706461DB
S3150800545C74652920362E332E3120323031373036CA
S3150800546C3230202872656C6561736529205B415260
S3150800547C4D2F656D6265646465642D362D627261A7
S3150800548C6E6368207265766973696F6E203234397B
S3150800549C3433375D000000000C000000FFFFFFFFEF
S315080054AC0100027C0E0C0D001C000000A454000820
S315080054BC6802000888000000420E188306840585D9
S315080054CC04860387028E01002C000000A4540008F1
S315080054DCF002000848020000410E10840485038679
S315080054EC028E01420E1802CB0A0E10410B770A0ED9
S315080054FC10410B450E10000024000000A4540008AF
